:100000000C9434000C9459000C9459000C94590031
:100010000C9459000C9459000C9459000C945900FC
:100020000C9459000C9459000C9459000C945900EC
:100030000C9459000C9459000C9459000C945900DC
:100040000C9459000C9459000C9459000C945900CC
:100050000C9459000C9459000C9459000C945900BC
:100060000C9459000C94590011241FBECFEFD8E016
:10007000DEBFCDBF0E9440000C943E00F894FFCF3D
:1000800084B18F6384B981E385B92FE734E89EE1B9
:10009000215030409040E1F700C0000085B92FE7C3
:1000A00034E88EE1215030408040E1F700C000008C
:0200B000EACF95
:0400B2000C940000AA
:00000001FF
